:020000040000fa
:080000000002040000000000f2
:020000040000fa
:100400006fce20000eff27000e01880000000000c4
:100410000c00070000e72000010020001f0007007b
:10042000000020000000e000020032000000020096
:1004300000000000280f0200000000000040da0069
:100440000000fe004440a900e00020000000e000a1
:100450000300320000002000a00188004440a800f2
:1004600000000600f03fb1000180b1000600350039
:10047000ee03090000000000403fb1000180b10020
:10048000fbff3d001000b000203fb000020035002f
:1004900000800900000000000000060091018800b3
:1004a000800078000000eb0015003700e28040007b
:1004b00032a0b4009101ba00e280400032a0b40042
:1004c0009102ba00e280400032a0b4000002eb00ca
:1004d000472bde00f507b200602ce10004003a0073
:1004e0000059eb008301e900fdff3e0004003700e6
:1004f0006128e100010032000082eb0004000700e7
:100500001101ba000200e000e8ff3a000000060016
:100510003159ba008301e9000c0032002159ba00b8
:100520008301e900080032000400e00003003a0003
:10053000e280400032a0b400f5ff370011d9ba00c4
:100540008301e900faff3a008100e800e180400001
:1005500032a0b400000006000040da000000fe00f7
:100560000a00fa0080017800e20f500028003e00e7
:1005700020478000e10f5000080032008023200057
:100580000000e000050032000423200025232000a5
:100590004623200080017800040037000422200058
:1005a00025222000462220008322200014409000b3
:1005b0000004e000040035008009eb0014409000c6
:1005c0000074a00010429800154090000028a3007d
:1005d00003003a00154090000024a00090429800cb
:1005e0008001eb0007003700154090000008a300d1
:1005f000fdff320063c078000000fb00000b7800b4
:100600008301e800828f5100f7ff3a0008003700ad
:1006100030002000b0bf9f00c3bf9f00d1bf9f002c
:10062000e2bf9f006a80570000c0da006fb99700f0
:10063000020078000080fa0000000600881f7800a1
:10064000000478005001be004000be0004004000dd
:10065000858048000601490087814900009cbe0052
:100660000294be000400e1000588e1000690e1006c
:100670000798e10002003100680044001008e8001b
:100680004f04780000000600f4874700889fbe00f2
:100690008a9fbe008c9fbe008e1f78000205be00a0
:1006a0000004be00d4b79f00e5b79f00f6b79f00d7
:1006b00087bf9f000000eb00c0b79f00b0b79f004e
:1006c000a0b79f0090b79f0080b79f000d04200047
:1006d000bfb097004fb09700000140000000e0005d
:1006e0000f003d004f08de0000007100c0b79f0002
:1006f0009e00070001003d0012002000a10007003d
:1007000001003d0012002000a6000700b100070014
:10071000b60007000f004000c8ff070022003700a6
:100720004f08de0000067100ccb79f008f00070065
:1007300001003d00120020009200070001003d0072
:100740001200200097000700a20007000fb29700d8
:100750009fb297002fb39700bfb39700a90007007f
:100760000000520081805a0002015b0083815b001f
:1007700080b79f0091b79f00a2b79f00b3b79f00bb
:100780000007eb009f0007000020e10001a8e10046
:1007900002b0e10003b8e100010031001e002000ba
:1007a0000e005600c0b79f004fb297000400e00053
:1007b0000700350010002000010020006011b80083
:1007c00008047000898470000a0571008b8571002f
:1007d0008d06e900beff3a000400e00003003d0082
:1007e000820007000f00400094ff07004fa8970009
:1007f0000000e00004003a000fb497009fb4970097
:100800002fb59700bfb59700940007004f077800f9
:100810004f06be004f05be004f04be004f01b100a1
:1008200000000600881f780018002000881f78004c
:1008300095ff07008f87e9004f047800000006004d
:10084000801feb0090ff07008f87e9000000060083
:10085000889fbe008a9fbe008c1f78006e00070034
:1008600007003d0073000700e00f5b00e08f5b00b6
:1008700007003d00320007000006eb0004003700cf
:100880003400070002003d002a0007001c00200081
:1008900072000700e3ff07000203be000002be0073
:1008a0000c00e00001003200220007000400be003e
:1008b0000601be004f0678004f05be004f04be0083
:1008c00000000600889fbe008a9fbe008c1f780033
:1008d0005100070005003d0056000700e00f5b00d7
:1008e000e08f5b0006003d000400370019000700a0
:1008f00003003d006000b8006011b8001000070060
:1009000056000700ceff07000203be000002be0033
:100910000c00e00001003200060007000400be00e9
:100920000601be004f0678004f05be004f04be0012
:10093000000006006000b8006011b8000000370039
:10094000040250008582580006035900878359002d
:10095000000006000006eb00e00f5200e08f5a0096
:10096000e00f5b00e08f5b000000060001804000ac
:1009700090b79f000001eb008fb097000100e000ee
:10098000000006000200700090b79f000180400048
:1009900080b79f000001eb00ffa897000100e00076
:1009a000000006000200700080b79f000180400038
:1009b0006faa9700cf20de0001007000f0af9f000b
:1009c00004024200250007004f18de0000027200fa
:1009d00000000600e4af9f000804440089844c0036
:1009e0000a054d008b854d00000006003fb29700c0
:1009f000cfb297005fb39700efb3970000fe2f00d0
:100a0000000006003fb09700cfb097005fb197009d
:100a1000efb19700000006000205be000004be0012
:100a2000e00f5000e08f5800e00f5900e08f5900b0
:100a3000000006006000b8006011b8000804500013
:100a4000898458000a0559008b8559001c00200034
:100a5000e00f5200e08f5a00000006000800be00c0
:100a60000a01be0000000600421188000011880043
:100a700011118800000006000000fa00cfb89700ae
:100a800068815700e08a20002c0007000080fa00ef
:100a900000000600881f78000004780030009000f5
:100aa0000008a30007003200800078000120b20097
:100ab00004003a0011049800a8009000010c78008e
:100ac000170037000018a300190032000098a30097
:100ad00017003200a80090000100e000140032006e
:100ae000180190000200e000110032004800900060
:100af0009bfe070098009000810f50000300320019
:100b0000380090000003b300300498000000eb00b0
:100b10001004980028009000000c78003800900025
:100b20000058a300020032000080eb0001003700f3
:100b30000000eb004f04780000000600fa87470031
:100b4000889fbe008a9fbe008c9fbe008e1f7800cb
:100b5000f0b79f000107780082bf9f000000eb0004
:100b6000c0b79f00130237008046eb0050c2b300ad
:100b700080cf5000090032000100fb00ffb0970059
:100b800017020700e10f40000a023200cfb09700c1
:100b90008100e800c1b79f00060237009e40780040
:100ba000d0c2b30080cf50000c00320007003c00e0
:100bb0006d40500080cf50000a0032006b40400072
:100bc00080cf50000e003a000800370000c3b30089
:100bd00080cf50000a003a00060037000d34a00014
:100be000050037000d04a000030037000d14a0001d
:100bf000010037000d24a0000e07e800e7ff3700d2
:100c00000d18a300010032000d04a1000d38a3004f
:100c1000010032000d24a1000100fb0002fd2f00a5
:100c200002004000e90f50000e003e000002eb0001
:100c3000d4b79f00820178005fb397006a30b90093
:100c40001e01fb000001410003014100d2b79f00db
:100c50005e00fb0003004000e90f50000b003e0067
:100c6000f5ff37000006eb00dcb79f00a0c2b30021
:100c700080cf500005003a000fb89700c000780000
:100c800080bf9f00d1b79f000e07e8000001eb0076
:100c900092b79f00e0c2b3009e4f100017003a00c9
:100ca0008e00e80064405000914f100002003200b6
:100cb000010778000c0037000fba97004403780052
:100cc00084bf9f0096b79f000e87e8000b00370097
:100cd0001fb697006a60b9000000410003004000a1
:100ce00090b79f000e07e8001e01fb0003fd2f00d8
:100cf00003004100e90f5000f5ff3600be407800c8
:100d0000a1df9f0030c7b30080cf50001a0032002f
:100d100009003c007040500080cf50006400320059
:100d20006940400080cf50000a0032000104e0001a
:100d3000a40132007d00370050c7b30080cf5000bf
:100d40007e0032006340400080cf500077003a00c0
:100d5000060037000040eb000d48a30001003a00f8
:100d600000c1b30080c67600e4ff37008d427800f2
:100d70000574a000730037008fb897004100780019
:100d800081bf9f00000478000000e00001003a00ed
:100d9000688c20008004eb00010037008104e8002b
:100da00089007800088044001004e000fbff3a004e
:100db0001fb197000200e00003003200890f5100cc
:100dc00001003100820478000002eb0084b79f002c
:100dd0005fb39700890f53000200360009005300eb
:100de00080b79f004368de00e10660001b003a0008
:100df0000d06780009003700ffb0970000022000c0
:100e000077010700e10f4000030032004fb0970068
:100e10000000e800c0b79f000c06e8008fb0970004
:100e2000810f5600f4ff3a000081eb0082b79f006b
:100e30000a003700880078003100fb0001047800c8
:100e4000ffb0970066010700e10f40000300320089
:100e50004fb297000402e800c4b79f000900e90000
:100e600080047800e10f4000f2ff3a000006eb003a
:100e70000d00e0000a003a004e013700ffb0970075
:100e80000002200056010700e10f4000030032007d
:100e90004fb397000603e800c6b79f000c06e800b2
:100ea0000fb09700800f5600f4ff3a004101370061
:100eb0008fb897004100780081bf9f00cf80de008f
:100ec00001017800820178000205be000004be0026
:100ed0000203be000002be004822de00482edd00f4
:100ee00004027600a4df9f000d48a3000a00320030
:100ef0000404e00008003200e14f42000600320026
:100f0000b1fd2f000f804000044878001840980081
:100f10002900200002003700b0df9f0019002000e8
:100f2000b2fd2f000f044100a1ff3700a4fd2f00e8
:100f30000f044200190020009dff370000ccb300d1
:100f400080c276000583fb00e6b79f000648a30039
:100f5000070032000fbe97004c00be008cbf9f0000
:100f60006011b8000205be000004be000700370093
:100f70008fb897004100780081bf9f00000478007f
:100f8000090020000a0020000b0020001fb197007c
:100f90000200e00007003a00e00f5400e08f5c0020
:100fa000e00f5d00e08f5d0002003a0014002000b9
:100fb00094b79f00efb09700010cb200000820002a
:100fc000808f500014003200000c2000808f5000f1
:100fd00025003a0014c0b300068020000b00370043
:100fe0000400fb004300dd00060040005001be008d
:100ff0004000be000040e10001c8e10002d0e10075
:1010000003d8e100170039000442e800f44f520011
:10101000f3ff3a0013003700000120000100200018
:101020006011b80014c0b3000040e10001c8e10045
:1010300002d0e10003d8e1000a0039004600200098
:101040000000d0008180d2000281d2008381d200d2
:101050000603e900faff3a000442e800f04f5200ac
:10106000f1ff3a00a4df9f002fde97000c00fb0089
:101070009fb09700810f500002003d00a1df9f004c
:10108000040037001fb19700800f510001003d00a0
:1010900090b79f005fb297000400e00005003200a7
:1010a0006fb3970063006300020032000402e9009e
:1010b000d4b79f008582fb00a5b79f002fde970065
:1010c0000c00fb008000eb00f1af9f005fb19700c8
:1010d000800f51000200340000005100f0af9f006b
:1010e0002fb297000428a300350032006fb3970099
:1010f000e10063000418a3000c003200d0022000bd
:101100000100e00001003a000080e900ffb0970014
:10111000b3000700e10f40000e0032004fb6970009
:101120000c06e800ccb79f000a0037000100e00081
:1011300008003200ffb0970000022000a80007005e
:10114000e10f4000030032004fb097000000e800bc
:10115000c0b79f00ffa897000100e0000f00320019
:101160000006eb00ffb09700000320009c00070082
:10117000e10f4000030032004fb197000201e80088
:10118000c2b79f000c06e8007faa9700840f5600a4
:10119000f4ff3a000003eb00f6af9f001fb6970084
:1011a0004360dd00817f2000810640004260dd0059
:1011b000640650000000eb00b0b79f0066003700e7
:1011c000ffa897000100e000120032002fb1970045
:1011d000680061000f003a0000067800ffb0970039
:1011e000000220007e000700e10f400003003200f3
:1011f0004fb297000402e800c4b79f000c06e80055
:101200007fab9700860f5600f4ff3a000006eb0014
:10121000fcaf9f006fb09700e10060002fb1970016
:101220000218a3000c003200d00220000100e000f0
:1012300001003a000080e900ffb097006800070055
:10124000e10f4000d5ff32004fb297000402e800e2
:10125000c4b79f00d1ff37000100e000cfff32008c
:10126000ffb09700000220005d000700e10f400082
:10127000caff32004fb397000603e800c6b79f00cd
:10128000c6ff3700efb09700010cb2000008200045
:10129000808f500010003200000c2000808f500022
:1012a0001f003a003d02be002d03be000800be0034
:1012b0000a01be005bfd0700a4002000050020001d
:1012c0006033b8005efd070004c3b3000442400071
:1012d000a4df9f001200370014002000050020004a
:1012e0006033b8000c0078000000e900050033000e
:1012f0000402d0008582d2000683d2008783d20008
:10130000f9ff37000800be000a01be0045fd0700d6
:101310006f006000d48c200064427800a4df9f003e
:10132000afd897000100fb00ffb097002c0007002a
:10133000e10f4000030032004fb197000201e800c6
:10134000c2b79f003fb297000402e800b4b79f0005
:10135000e8865600640656003fb397001fb097001a
:10136000800f5300c7ff3a00afb097000138a300c9
:10137000100032007fa997000200e0000d00340049
:101380000006eb00ffb097000002200014000700e9
:10139000e10f4000030032004fb297000402e80062
:1013a000c4b79f000c06e8007fab9700860f56007d
:1013b000f4ff3a00be407800a1df9f000104e00086
:1013c000e9fd3a004fb097004f0778004f06be0086
:1013d0004f05be004f04be00af01b1000000060083
:1013e000889fbe000001780001047800b1009000e1
:1013f0000118a3003d0032000198a30003003a0049
:10140000180090000000e00038003a000190a000b1
:101410003104980082047800f90fb200180090009f
:101420000000e00002003a0028009000000c780064
:10143000ea8f540006003a00380090000078a300bc
:1014400003003a0088007800d0002000e4ff070085
:101450009800900058009000808f50000b003200e0
:101460000100e8001004980018007800095878007e
:10147000000c780011c0b300208e200001487800d5
:10148000ea8f540006003200190037008800780007
:101490000940780019000700800478001400370024
:1014a000380090000088a30011003200180190005d
:1014b000a80090004800900029fc070098009000c8
:1014c000810f500004003200380090000003b30088
:1014d000300498008084eb000000eb0010049800ba
:1014e00028009000000c7800010037008084eb0099
:1014f000090078004f04be00000006000200fa0058
:10150000889fbe00a0ff9f0001047800b1009000fa
:10151000810478000904b200020032000000fb00e0
:10152000360037000118a30005003a000103b3009c
:1015300031049800190498000080eb002f00370058
:10154000580090000000e00006003a0048009000bb
:1015500012002000e680570001fc070019049800e3
:1015600024003700280090000000e00008003a0046
:10157000e08d200020049800000c7800200020005e
:1015800050049800100498000130a0003104980025
:1015900018019000a800900048009000f0fb0700a0
:1015a00028009000000c78000080eb0010049800e8
:1015b00018007800aff8970001587800000c780008
:1015c0002ff89700ea4f50000a003a0038009000c8
:1015d0000088a3000700320018019000a8009000c6
:1015e00048009000defb070019049800a800900056
:1015f000010c7800aff897000100fb004f04be001b
:081600000080fa000000060062
:020000040000fa
:0200000401f009
:04000800ffff0000f6
:020000040000fa
:0200000401f009
:04000c00fbff0000f6
:020000040000fa
:0200000401f009
:04001000fdff0000f0
:020000040000fa
:0200000401f009
:040014007fff00006a
:020000040000fa
:10000800ac020000ac020000ac020000ac02000030
:10001800ac020000ac020000ac020000ac02000020
:10002800ac020000ac020000ac020000ac02000010
:10003800ac020000ac020000ac020000ac02000000
:020000040000fa
:020000040000fa
:10160800486500006c6c00006f200000576f0000f8
:0c161800726c0000642100000000000063
:020000040000fa
:101624000000fa00620020000140200000002800b1
:101634000cfd070000802e003100200088fb07000d
:101644000080fa00000006000200fa00004f780053
:10165400010037000000000023c2bf0062406000a8
:101664000004e000fbff3a001e80fb00201188000c
:10167400010037000000000023c2bf006140600089
:101684000004e000fbff32000080fa0000000600c6
:101694000600fa0010079800414798000040eb004c
:1016a400004f7800070037001e80fb0080007800a0
:1016b4001e0090000080400010407800e2ff070008
:1016c4001e4fe8004e4090009e4f1000f6ff390078
:1016d4000080fa00000006000200fa00004f7800c3
:1016e400c0c7b300d8ff07001e407800d6ff07002c
:1016f4000080fa00000006000000fa00c0c7b30032
:10170400d1ff07000040eb00cfff07000080fa0084
:10171400000006000200fa00000f7800c0c7b30002
:10172400c9ff070010c0b300c7ff07001e00780000
:10173400c5ff07000080fa00000006000200fa005e
:10174400000f7800c0c7b300bfff070020c0b3007c
:10175400bdff07001e007800bbff07000080fa00f1
:10176400000006000800fa00000f78001107980036
:101774002207980033079800c0c7b300b2ff0700e0
:1017840030c0b300b0ff07001e007800aeff0700b2
:101794001e009000acff07002e009000aaff070077
:1017a4003e009000a8ff07000080fa000000060039
:1017b4000000fa00c0c7b300a3ff070040c0b30095
:1017c400a1ff07000080fa00000006000800fa00ec
:1017d400000f78001107980022079800330798003b
:1017e400c0c7b30098ff070050c0b30096ff0700be
:1017f4001e00780094ff07001e00900092ff07006f
:101804002e00900090ff07003e0090008eff07001e
:101814000080fa00000006000000fa00c0c7b30010
:1018240089ff070060c0b30087ff07000080fa004b
:10183400000006000200fa00000f78001e00e0001d
:1018440002003c0010002000000f7800600020001f
:101854009e0f10000200340060002000000f78008a
:10186400c0c7b30078ff070070c0b30076ff07005d
:101874001e00780074ff07000080fa0000000600d4
:101884000000fa00c0c7b3006fff070080c0b300b8
:101894006dff07000080fa00000006000200fa0055
:1018a400000f7800c0c7b30067ff0700a0c0b300f3
:1018b40065ff07001e00780063ff07000080fa0040
:1018c400000006000800fa00000f780011079800d5
:1018d4002207980033079800c0c7b3005aff0700d7
:1018e400b0c0b30058ff07001e00780056ff070081
:1018f4001e00900054ff07002e00900052ff0700c6
:101904003e00900050ff07000080fa00000006002f
:101914000a00fa00000f78001107980022079800c7
:101924003307980044079800c0c7b30046ff070078
:10193400c0c0b30044ff07001e00780042ff070048
:101944001e00900040ff07002e0090003eff07009d
:101954003e0090003cff07004e0090003aff070055
:101964000080fa00000006000a00fa001007980040
:10197400210798003207980043079800c0c7b300b6
:1019840031ff0700d0c0b3002fff07001e009000f6
:101994002dff07002e0090002bff07003e00900053
:1019a40029ff07000000eb00000f78000700370054
:1019b4001e007800800078004e00900000804000f7
:1019c4001040780020ff07001e0fe800f0012000ff
:1019d4009e0f1000f6ff34000080fa00000006009d
:1019e4000a00fa00000f78001107980022079800f7
:1019f4003307980044079800c0c7b30012ff0700dc
:101a0400f0c0b30010ff07001e0078000eff0700af
:101a14001e0090000cff07002e0090000aff070034
:101a24003e00900008ff07004e00900006ff0700ec
:101a34000080fa00000006000600fa00000f78009b
:101a44001107980022079800c0c7b300fefe0700e4
:101a540000c1b300fcfe0700000820009e0f100028
:101a64000300340000c8b300f7fe07000700370086
:101a74001e00e00003003d000040eb00f2fe070002
:101a8400020037001e007800effe07009e00900061
:101a940000042000808f50000300340000c4b30011
:101aa400e9fe0700080037001e0090000000e00077
:101ab40003003d000040eb00e3fe07000200370096
:101ac4001e009000e0fe07002e009000e10f500081
:101ad400060032002e0090000000e00003003200f7
:101ae40010c0b300d8fe0700020037002e0090009b
:101af400d5fe07000080fa00000006000a00fa0084
:101b0400000f780011079800220798003307980007
:101b1400044f9800c0c7b300cbfe070020c1b30038
:101b2400c9fe07001e007800c7fe07001e009000d3
:101b3400c5fe07002e009000c3fe07003e00900083
:101b4400c1fe07000e489000bffe07000080fa00a7
:101b5400000006000000fa00c0c7b300bafe070088
:101b640040c1b300b8fe07000080fa000000060080
:101b74000000fa00c0c7b300b3fe070050c1b300b1
:101b8400b1fe07000080fa00000006000e00fa0013
:101b9400100798002107980032079800430798001f
:101ba4005407980065079800c0c7b300a6fe070055
:101bb40060c1b300a4fe07001e009000a2fe07004f
:101bc4002e009000a0fe07003e0090009efe07003d
:101bd4004e0090009cfe07005e0090009afe0700f5
:101be400ce0090005e0090000088b90082002000c2
:101bf400110009000200d800000f78000000eb007b
:101c040010079800090037001e009000800078003b
:101c14006e00900000804000104078008afe0700ab
:101c24001e0090000000e800100798001e009000bd
:101c34009e0f5000f4ff35000080fa0000000600fb
:101c44000400fa00000f780011079800c0c7b30021
:101c54007dfe070080c1b3007bfe07001e007800f4
:101c640079fe0700c0c7b30077fe070090c1b30038
:101c740075fe07001e00900073fe07000080fa0046
:101c8400000006000400fa00100798001e009000ef
:101c9400e80f500003003400800020001007980073
:101ca4000c0037001e0090000000e00003003c0020
:101cb4001000200010079800060037001e00900056
:101cc4004300dd00680f50009e00780010002000e3
:0c1cd400dbff07000080fa0000000600a3
:020000040000fa
:101ce000e408000002000000020000000100000003
:101cf000a00800002600000002000000a208e0008a
:101d000008000000e0080900000000000200de00fa
:101d100008000000de0806000201000000000000cc
:101d200000000000000006000202000000000000a9
:101d3000de080000060000000000000000080000af
:101d4000a0000000020000000100000000000000f0
:101d500000000a0000000000000000000064000015
:101d60000000000000000000e80300000000000088
:101d700000001000270000000000000000a0860006
:101d8000010000000000000040420f0000000000c1
:101d90000000800096980000000000000000e100b4
:101da000f50500000000000000ca9a003b0000009a
:101db00000000000e40b5400020000000000e800f6
:101dc00076481700000000000010a500d4e80000cd
:101dd00000000000a0724e00180900000000400042
:101de0007a10f3005a0000000080c600a47e8d0027
:101df0000300000000c16f00f28623000000000015
:101e00008a5d78004563010000006400a7b3b60056
:101e1000e00d000000e889000423c7008a000000ec
:101e2000c60800001800000002000000286e7500bf
:101e30006c6c290000303100323334003536370005
:101e400038396100626364006566000000000000cc
:020000040000fa
:101e50000000fa001000200020478800f1fd070074
:101e60000040eb001dfe070080c1b3001bfe070011
:101e70000040eb00f5fd070090c1b30017fe07001e
:101e80000040eb00f1fd070040b02800801f780003
:101e9000f9fa07008f87e900e08a2000fdfa0700c1
:041ea000ffff370009
:00000001FF
